:1000000097C00000B0C00000AEC00000ACC000004F
:10001000AAC00000A8C00000A6C00000A4C0000044
:10002000A2C00000A0C000009EC0000070C200007E
:100030009AC0000098C0000096C0000094C0000064
:1000400092C0000090C000008EC000008CC0000074
:100050008AC0000088C0000086C0000084C0000084
:1000600082C0000080C000007EC000007CC0000094
:100070007AC000001201100100000008EB034820C4
:1000800001000102000109026500020100C03209FD
:100090000400000001010000092401000109000121
:1000A00001090401000201030000072401000141CD
:1000B00000062402010100062402020200092403B2
:1000C00001030102010009240302040101010009E6
:1000D000050102400001000005250101010905821A
:1000E0000240000100000525010103040309041A70
:1000F00003480061006E00730020004800FC0062AD
:10010000006E0065007200000024036D0069004469
:100110000069004D005800200043006F006E00741D
:100120000072006F006C006C00650072000000003F
:1001300011241FBECFEFD2E0DEBFCDBF11E0A0E0A3
:10014000B1E0ECE5FCE002C005900D92AA30B107E9
:10015000D9F711E0AAE0B1E001C01D92A839B107BA
:10016000E1F761D079C54CCFAC015E985B98E0E7D0
:10017000F1E03197F1F75B9A80E48A95F1F780918D
:10018000C90088608093C9008091C80085FFFCCFBA
:100190001092CE008091C80086FFFCCF20E030E0B6
:1001A00010C0FA01E20FF31FE0818091C80085FFC3
:1001B000FCCFE093CE008091C80086FFFCCF2F5F7C
:1001C0003F4F2617370768F38091C900877F8093D8
:1001D000C9005E9A089580E091E007C584B7877FE3
:1001E00084BF88E10FB6F89480936000109260009D
:1001F0000FBE80E090E020E80FB6F89420936100F5
:10020000809361000FBE83E08093CC001092CD00FC
:100210001092C8008EE08093CA001092C900539AD1
:10022000569A5E9A65C10F931F93DF93CF9300D0C8
:1002300000D0CDB7DEB7D2DF5E9888EE93E020E93C
:1002400031E0F9013197F1F70197D9F75E9A88EE1D
:1002500093E020E931E0F9013197F1F70197D9F7FF
:100260005E9888EE93E020E931E0F9013197F1F7EB
:100270000197D9F75E9A88EE93E020E931E0F90121
:100280003197F1F70197D9F75E9888EE93E020E96E
:1002900031E0F9013197F1F70197D9F75E9A88EECD
:1002A00093E020E931E0F9013197F1F70197D9F7AF
:1002B00078948E010F5F1F4F21C08A81807F803824
:1002C00011F08039D9F49B81803911F080E003C0AE
:1002D0008C81880F880FE92FF0E0E55FFE4F808367
:1002E00080910A01891710F490930A0160910A0124
:1002F00070E06F5F7F4F8BE091E036DF80E091E050
:10030000B80137D48823C9F680E091E066D41ED4C2
:10031000F5CFDA01923049F0933061F09130F9F481
:10032000E4E7F0E022E130E01EC0E6E8F0E025E698
:1003300030E019C0813049F0813018F0823079F412
:1003400008C0EBEEF0E0849107C0EFEEF0E084919E
:1003500003C0E9E0F1E08491282F30E004C0E0E040
:10036000F0E020E030E0ED93FC93C9010895382FD0
:10037000282F2CC02093E900231721F4762F942FE7
:1003800050E006C07091EC009091ED005091F000AB
:1003900091FF1BC08091EB008E7F8093EB008091DA
:1003A000ED008D7F8093ED008091EB008160809364
:1003B000EB007093EC009093ED005093F00080916F
:1003C000EE0087FD02C080E008952F5F253090F297
:1003D0003093E90081E008958091900188239CF496
:1003E00004C080918F018823B9F08091E80082FFDA
:1003F000F8CF8091E8008B778093E8000895809192
:100400008F01882349F08091E80080FFF8CF809128
:10041000E8008E778093E80008954091E4005091C1
:10042000E50024E68091EC0080FF24C08091E80084
:1004300080FD1EC080918F01882311F482E0089511
:10044000853011F483E008958091EB0085FF02C0B0
:1004500081E008958091E4009091E500841795076C
:1004600009F3222311F484E008952150AC01DACF7E
:1004700080E008958091E80082FFDCCFF9CF41D081
:1004800043D08091D8008F778093D8008091D80096
:1004900080688093D8008091D8008F7D8093D800A9
:1004A00084E089BD86E089BD09B400FEFDCF1092CD
:1004B0008F0110928B0110928D0110928C0180E0BF
:1004C00060E042E054DF8091E1008E7F8093E100A4
:1004D0008091E20081608093E2008091E200886078
:1004E0008093E2008091E0008E7F8093E000089589
:1004F000E3E6F0E080818E7F808381E080938E014F
:10050000BECF1092E20008951092E10008951F926C
:100510000F920FB60F9211242F933F934F935F9337
:100520006F937F938F939F93AF93BF93EF93FF93BB
:100530008091E10082FF0AC08091E20082FF06C044
:100540008091E1008B7F8093E100FFD28091E100F8
:1005500080FF17C08091E20080FF13C08091E2000D
:100560008E7F8093E2008091E20080618093E200C0
:100570008091D80080628093D80019BC10928F01BE
:10058000E4D28091E10084FF2DC08091E20084FFDD
:1005900029C084E089BD86E089BD09B400FEFDCF95
:1005A0008091D8008F7D8093D8008091E1008F7E6C
:1005B0008093E1008091E2008F7E8093E200809141
:1005C000E20081608093E20080918B01882331F406
:1005D0008091E30087FD02C081E001C084E0809348
:1005E0008F01B3D28091E10083FF22C08091E200AD
:1005F00083FF1EC08091E100877F8093E10082E04D
:1006000080938F0110928B018091E1008E7F809307
:10061000E1008091E2008E7F8093E2008091E20011
:1006200080618093E20080E060E042E0A0DE8DD255
:10063000FF91EF91BF91AF919F918F917F916F91BA
:100640005F914F913F912F910F900FBE0F901F9090
:1006500018959C01409196015091970146175707B4
:1006600018F4F90190E03DC06115710511F0AB017E
:10067000F8CF8091E8008E778093E80040E050E06A
:10068000F0CF80918F018823F1F18530F1F18091D5
:10069000E80083FF02C081E008958091E80082FDB8
:1006A0002CC08091E80080FF1CC08091F200282FB0
:1006B00030E007C081918093F100415050402F5F9E
:1006C0003F4F4115510519F02830310598F390E05E
:1006D0002830310509F491E08091E8008E7780930D
:1006E000E8004115510569F6992359F606C0809135
:1006F0008F01882341F0853041F08091E80082FF2E
:10070000F6CF80E0089582E0089583E008959C018B
:1007100040919601509197014617570718F4F90137
:1007200090E040C06115710511F0AB01F8CF8091E8
:10073000E8008E778093E80040E050E0F0CF8091B1
:100740008F01882309F440C0853009F43FC08091AF
:10075000E80083FF02C081E008958091E80082FDF7
:100760002DC08091E80080FF1DC08091F200282FED
:1007700030E008C084918093F100319641505040A0
:100780002F5F3F4F4115510519F02830310590F387
:1007900090E02830310509F491E08091E8008E77EF
:1007A0008093E8004115510551F6992341F606C0A2
:1007B00080918F01882341F0853041F08091E800DD
:1007C00082FFF6CF80E0089582E0089583E00895E7
:1007D000BF92CF92DF92EF92FF920F931F93CF932E
:1007E000DF93182F092F7B016A0117DEB82E8823AB
:1007F000B1F5812F902F9C01E901C114D10439F08A
:10080000F60180819181E81AF90AC80FD91F00E02A
:1008100010E022C08091E80085FD16C08091E800BC
:100820008B778093E80092D1C114D10449F0F6018E
:1008300080819181800F911F9183808385E010C01A
:10084000ECDD882349F00CC08091F1008993089475
:10085000E108F1080F5F1F4FE114F104D9F68B2D69
:10086000DF91CF911F910F91FF90EF90DF90CF908C
:10087000BF9008950F931F93DF93CF93CDB7DEB74B
:10088000AC970FB6F894DEBF0FBECDBFE0E9F1E044
:100890008091F100819321E0E839F207C9F755D141
:1008A0008091E80083FF38C18091900130919101DF
:1008B000353009F487C0363040F43130C9F1313079
:1008C00070F0333009F028C133C0383009F4F6C075
:1008D000393009F405C1363009F01EC197C080389F
:1008E00021F0823809F018C108C090918C018091E4
:1008F0008D01882399F0926011C0809194018F70CE
:100900008093E9008091EB0090E025E09695879533
:100910002A95E1F7982F91701092E9008091E800F4
:10092000877F8093E8009093F1001092F100D1C08E
:10093000882319F0823009F0EFC090E08F71907039
:10094000009721F0029709F0E7C00CC08091920156
:10095000813009F0E1C010928D01333069F5809348
:100960008D012AC080919201882331F52091940154
:100970002F7009F4D1C02093E9008091EB0080FF33
:100980001BC0333021F48091EB00806213C0809152
:10099000EB0080618093EB0081E090E002C0880F63
:1009A000991F2A95E2F78093EA001092EA0080915D
:1009B000EB0088608093EB001092E9008091E800E2
:1009C000877F8AC0882309F0A7C0109192011F7702
:1009D0000FB7F8948091E800877F8093E800FCDCF3
:1009E0008091E80080FFFCCF8091E3008078812B2C
:1009F0008093E30080688093E300112311F482E088
:100A000001C083E080938F010FBF86C08058823081
:100A100008F082C0809192019091930123E08C3D77
:100A2000920709F033C083E08C838AE28B837FB71F
:100A3000F894DE0115966EE040E050E011E2E62FFA
:100A4000F0E010935700849140FF03C082958F70AF
:100A50006F5F8F70282F30E08A3018F0C901C79679
:100A600002C0C901C0968D939D934F5F5F4F443183
:100A7000510529F77FBF8091E800877F8093E800C8
:100A8000CE0103966AE270E0E4DD12C06091940149
:100A9000AE014F5F5F4F3DDCBC01009709F43CC0E5
:100AA0008091E800877F8093E80089819A812FDE1A
:100AB0008091E8008B778093E8002EC0803861F544
:100AC0008091E800877F8093E80080918B0180937C
:100AD000F1008091E8008E778093E8007DDC1CC0F7
:100AE0008823D1F4909192019230B0F48091E80083
:100AF000877F8093E80090938B016EDC80918B015F
:100B0000882331F48091E30087FD02C081E001C0B9
:100B100084E080938F015FDB8091E80083FF0AC04F
:100B20008091EB0080628093EB008091E800877FEA
:100B30008093E800AC960FB6F894DEBF0FBECDBF31
:100B4000CF91DF911F910F91089508951F93809188
:100B50008F01882361F01091E9001092E9008091E3
:100B6000E80083FF01C086DE1F701093E9001F912B
:100B70000895FC0180918F018430C1F485818093B8
:100B8000E9008091E80085FF11C0CB0164E070E0CE
:100B900040E050E01DDE8091E80085FD05C08091B9
:100BA000E8008B778093E80081E0089580E0089565
:100BB000FC0180918F01843011F082E008958181E1
:100BC0008093E9008091F200882331F08091E80061
:100BD0008E778093E80021CC08959C0180918F014D
:100BE000843011F4C901E4CF08951F93CF93DF93AC
:100BF000EC0111E08981181729F46A817B818C81CD
:100C000030E807C08D811817F9F46E817F818885DF
:100C100030E0882311F440E001C044E020E088E0A7
:100C200090E003C02F5F880F991F86179707D0F3B6
:100C300060E0311161E0606842602295207F422BC4
:100C4000812F95DB882321F01F5F153099F681E015
:0C0C5000DF91CF911F910895F894FFCF21
:0A0C5C00010240000001400000000A
:00000001FF
