:1000000097C00000B0C00000AEC00000ACC000004F
:10001000AAC00000A8C00000A6C00000A4C0000044
:10002000A2C00000A0C000009EC0000033C30000BA
:100030009AC0000098C0000096C0000094C0000064
:1000400092C0000090C000008EC000008CC0000074
:100050008AC0000088C0000086C0000084C0000084
:1000600082C0000080C000007EC000007CC0000094
:100070007AC000001201100100000008EB034820C4
:1000800001000102000109026500020100C03209FD
:100090000400000001010000092401000109000121
:1000A00001090401000201030000072401000141CD
:1000B00000062402010100062402020200092403B2
:1000C00001030102010009240302040101010009E6
:1000D000050102400001000005250101010905821A
:1000E0000240000100000525010103040309041A70
:1000F00003480061006E00730020004800FC0062AD
:10010000006E0065007200000024036D0069004469
:100110000069004D005800200043006F006E00741D
:100120000072006F006C006C00650072000000003F
:1001300011241FBECFEFD2E0DEBFCDBF11E0A0E0A3
:10014000B1E0E8EAF0E102C005900D92AA30B107F3
:10015000D9F711E0AAE0B1E001C01D92A839B107BA
:10016000E1F751D19FC74CCFAF92BF92CF92DF92B0
:10017000EF92FF920F931F93CF93DF93EB015E9863
:10018000A0E0B0E0BC01CD015AD65B016C0120E0DB
:1001900030E04AE755E4E1D67B018C0120E030E015
:1001A00040E85FE31CD688231CF461E070E020C0C7
:1001B000C801B70120E03FEF4FE757E4CAD6181651
:1001C000A4F4C601B50120E030E040E251E4C5D618
:1001D0000AD680E991E005C0FC013197F1F7615042
:1001E000704061157105C1F706C0C801B701FBD5A4
:1001F000CB010197F1F75E9ABE0180E090E01FD637
:100200005B016C0120E030E04AE755E4A6D67B01B3
:100210008C0120E030E040E85FE3E1D588231CF466
:1002200061E070E020C0C801B70120E03FEF4FE778
:1002300057E48FD61816A4F4C601B50120E030E0CB
:1002400040E251E48AD6CFD580E991E005C0FC01B7
:100250003197F1F76150704061157105C1F706C023
:10026000C801B701C0D5CB010197F1F7DF91CF915C
:100270001F910F91FF90EF90DF90CF90BF90AF90C4
:1002800008955F926F927F928F929F92AF92BF92EA
:10029000CF92DF92EF92FF920F931F93CF93DF9352
:1002A000582E90E066E07FEFEBD68053984F10E039
:1002B0003C0188249924C0E9D1E006C082E390E0A3
:1002C00068EC70E051DF1F5F1515C0F3C401B30186
:1002D000B6D55B016C0120E030E04AE755E43DD63D
:1002E0007B018C0120E030E040E85FE378D5882393
:1002F0001CF461E070E01EC0C801B70120E03FEFD0
:100300004FE757E426D6181694F4C601B50120E04D
:1003100030E040E251E421D666D505C0CE01019718
:10032000F1F76150704061157105C1F706C0C80151
:10033000B70159D5CB010197F1F710E0C5CFAC015A
:100340005E985B98E0E7F1E03197F1F75B9A80E423
:100350008A95F1F78091C90088608093C9008091E7
:10036000C80085FFFCCF1092CE008091C80086FFA8
:10037000FCCF20E030E010C0FA01E20FF31FE08173
:100380008091C80085FFFCCFE093CE008091C8002B
:1003900086FFFCCF2F5F3F4F2617370768F380910A
:1003A000C900877F8093C9005E9A089580E091E03C
:1003B000DFD4882311F481E064CF089584B7877F68
:1003C00084BF88E10FB6F8948093600010926000BB
:1003D0000FBE80E090E020E80FB6F8942093610013
:1003E000809361000FBE83E08093CC001092CD001B
:1003F0001092C8008EE08093CA001092C900539AF0
:10040000569A5E9A38C10F931F93DF93CF9300D013
:1004100000D0CDB7DEB7D2DF84E690E064E670E0CE
:10042000A3DE84E690E064E670E09EDE84E690E081
:1004300064E670E099DE78948E010F5F1F4F21C053
:100440008A81807F803811F08039D9F49B8180398E
:1004500011F080E003C08C81880F880FE92FF0E055
:10046000E55FFE4F808380910A01891710F4909315
:100470000A0160910A0170E06F5F7F4F8BE091E0AD
:100480005EDF80E091E0B80137D48823C9F680E0D0
:1004900091E066D41ED4F5CFDA01923049F0933062
:1004A00061F09130F9F4E4E7F0E022E130E01EC0C1
:1004B000E6E8F0E025E630E019C0813049F081300F
:1004C00018F0823079F408C0EBEEF0E0849107C0B8
:1004D000EFEEF0E0849103C0E9E0F1E08491282F91
:1004E00030E004C0E0E0F0E020E030E0ED93FC9389
:1004F000C9010895382F282F2CC02093E900231715
:1005000021F4762F942F50E006C07091EC0090916A
:10051000ED005091F00091FF1BC08091EB008E7FA9
:100520008093EB008091ED008D7F8093ED008091B2
:10053000EB0081608093EB007093EC009093ED00F2
:100540005093F0008091EE0087FD02C080E0089596
:100550002F5F253090F23093E90081E0089580917B
:10056000900188239CF404C080918F018823B9F006
:100570008091E80082FFF8CF8091E8008B7780932C
:10058000E800089580918F01882349F08091E80068
:1005900080FFF8CF8091E8008E778093E80008957F
:1005A0004091E4005091E50024E68091EC0080FF4A
:1005B00024C08091E80080FD1EC080918F018823B7
:1005C00011F482E00895853011F483E0089580915C
:1005D000EB0085FF02C081E008958091E4009091D6
:1005E000E5008417950709F3222311F484E00895A8
:1005F0002150AC01DACF80E008958091E80082FFBD
:10060000DCCFF9CF41D043D08091D8008F77809351
:10061000D8008091D80080688093D8008091D8005D
:100620008F7D8093D80084E089BD86E089BD09B4C0
:1006300000FEFDCF10928F0110928B0110928D0160
:1006400010928C0180E060E042E054DF8091E10094
:100650008E7F8093E1008091E20081608093E200D0
:100660008091E20088608093E2008091E0008E7FBC
:100670008093E0000895E3E6F0E080818E7F808340
:1006800081E080938E01BECF1092E2000895109217
:10069000E10008951F920F920FB60F9211242F932D
:1006A0003F934F935F936F937F938F939F93AF93FA
:1006B000BF93EF93FF938091E10082FF0AC0809186
:1006C000E20082FF06C08091E1008B7F8093E10011
:1006D000FFD28091E10080FF17C08091E20080FF8F
:1006E00013C08091E2008E7F8093E2008091E2004F
:1006F00080618093E2008091D80080628093D8006E
:1007000019BC10928F01E4D28091E10084FF2DC0CA
:100710008091E20084FF29C084E089BD86E089BD24
:1007200009B400FEFDCF8091D8008F7D8093D80062
:100730008091E1008F7E8093E1008091E2008F7EC6
:100740008093E2008091E20081608093E2008091DA
:100750008B01882331F48091E30087FD02C081E0A2
:1007600001C084E080938F01B3D28091E10083FFC8
:1007700022C08091E20083FF1EC08091E100877F4C
:100780008093E10082E080938F0110928B01809131
:10079000E1008E7F8093E1008091E2008E7F809364
:1007A000E2008091E20080618093E20080E060E0FE
:1007B00042E0A0DE8DD2FF91EF91BF91AF919F916A
:1007C0008F917F916F915F914F913F912F910F90FA
:1007D0000FBE0F901F9018959C014091960150916B
:1007E00097014617570718F4F90190E03DC06115CD
:1007F000710511F0AB01F8CF8091E8008E778093FE
:10080000E80040E050E0F0CF80918F018823F1F1C3
:100810008530F1F18091E80083FF02C081E0089506
:100820008091E80082FD2CC08091E80080FF1CC010
:100830008091F200282F30E007C081918093F10071
:10084000415050402F5F3F4F4115510519F028305E
:10085000310598F390E02830310509F491E080915A
:10086000E8008E778093E8004115510569F69923D9
:1008700059F606C080918F01882341F0853041F000
:100880008091E80082FFF6CF80E0089582E008952D
:1008900083E008959C01409196015091970146177D
:1008A000570718F4F90190E040C06115710511F087
:1008B000AB01F8CF8091E8008E778093E80040E0AC
:1008C00050E0F0CF80918F01882309F440C085303B
:1008D00009F43FC08091E80083FF02C081E00895E1
:1008E0008091E80082FD2DC08091E80080FF1DC04E
:1008F0008091F200282F30E008C084918093F100AD
:100900003196415050402F5F3F4F4115510519F02E
:100910002830310590F390E02830310509F491E05A
:100920008091E8008E778093E8004115510551F6DB
:10093000992341F606C080918F01882341F08530CC
:1009400041F08091E80082FFF6CF80E0089582E0D8
:10095000089583E00895BF92CF92DF92EF92FF92C5
:100960000F931F93CF93DF93182F092F7B016A01F9
:1009700017DEB82E8823B1F5812F902F9C01E90155
:10098000C114D10439F0F60180819181E81AF90A85
:10099000C80FD91F00E010E022C08091E80085FD5B
:1009A00016C08091E8008B778093E80092D1C11443
:1009B000D10449F0F60180819181800F911F9183CC
:1009C000808385E010C0ECDD882349F00CC0809165
:1009D000F10089930894E108F1080F5F1F4FE114BB
:1009E000F104D9F68B2DDF91CF911F910F91FF90DC
:1009F000EF90DF90CF90BF9008950F931F93DF93F8
:100A0000CF93CDB7DEB7AC970FB6F894DEBF0FBE6D
:100A1000CDBFE0E9F1E08091F100819321E0E83978
:100A2000F207C9F755D18091E80083FF38C1809162
:100A3000900130919101353009F487C0363040F48F
:100A40003130C9F1313070F0333009F028C133C092
:100A5000383009F4F6C0393009F405C1363009F0F0
:100A60001EC197C0803821F0823809F018C108C033
:100A700090918C0180918D01882399F0926011C032
:100A8000809194018F708093E9008091EB0090E059
:100A900025E0969587952A95E1F7982F9170109209
:100AA000E9008091E800877F8093E8009093F1004F
:100AB0001092F100D1C0882319F0823009F0EFC004
:100AC00090E08F719070009721F0029709F0E7C0D5
:100AD0000CC080919201813009F0E1C010928D012B
:100AE000333069F580938D012AC08091920188236B
:100AF00031F5209194012F7009F4D1C02093E900C1
:100B00008091EB0080FF1BC0333021F48091EB001B
:100B1000806213C08091EB0080618093EB0081E0E4
:100B200090E002C0880F991F2A95E2F78093EA00AF
:100B30001092EA008091EB0088608093EB001092A5
:100B4000E9008091E800877F8AC0882309F0A7C068
:100B5000109192011F770FB7F8948091E800877F7A
:100B60008093E800FCDC8091E80080FFFCCF80915E
:100B7000E3008078812B8093E30080688093E3001A
:100B8000112311F482E001C083E080938F010FBF35
:100B900086C08058823008F082C080919201909186
:100BA000930123E08C3D920709F033C083E08C83EE
:100BB0008AE28B837FB7F894DE0115966EE040E001
:100BC00050E011E2E62FF0E010935700849140FFCF
:100BD00003C082958F706F5F8F70282F30E08A304E
:100BE00018F0C901C79602C0C901C0968D939D93A4
:100BF0004F5F5F4F4431510529F77FBF8091E80077
:100C0000877F8093E800CE0103966AE270E0E4DD1E
:100C100012C060919401AE014F5F5F4F3DDCBC019B
:100C2000009709F43CC08091E800877F8093E8003A
:100C300089819A812FDE8091E8008B778093E8008C
:100C40002EC0803861F58091E800877F8093E800AE
:100C500080918B018093F1008091E8008E778093E2
:100C6000E8007DDC1CC08823D1F490919201923081
:100C7000B0F48091E800877F8093E80090938B0127
:100C80006EDC80918B01882331F48091E30087FD35
:100C900002C081E001C084E080938F0187DB8091F6
:100CA000E80083FF0AC08091EB0080628093EB0034
:100CB0008091E800877F8093E800AC960FB6F894A7
:100CC000DEBF0FBECDBFCF91DF911F910F91089571
:100CD00008951F9380918F01882361F01091E9009E
:100CE0001092E9008091E80083FF01C086DE1F704A
:100CF0001093E9001F910895FC0180918F018430C9
:100D0000C1F485818093E9008091E80085FF11C0DE
:100D1000CB0164E070E040E050E01DDE8091E8002F
:100D200085FD05C08091E8008B778093E80081E025
:100D3000089580E00895FC0180918F01843011F0C6
:100D400082E0089581818093E9008091F2008823F8
:100D500031F08091E8008E778093E80021CC0895EF
:100D60009C0180918F01843011F4C901E4CF089572
:100D70001F93CF93DF93EC0111E08981181729F4B9
:100D80006A817B818C8130E807C08D811817F9F466
:100D90006E817F81888530E0882311F440E001C0B6
:100DA00044E020E088E090E003C02F5F880F991FA7
:100DB00086179707D0F360E0311161E06068426008
:100DC0002295207F422B812F95DB882321F01F5F06
:100DD000153099F681E0DF91CF911F9108956CD085
:100DE00008F481E0089594D088F09F5790F0B92FCF
:100DF0009927B751A0F0D1F0660F771F881F991F70
:100E00001AF0BA95C9F712C0B13081F09BD0B1E0A9
:100E1000089598C0672F782F8827B85F39F0B93FB9
:100E2000CCF3869577956795B395D9F73EF4909571
:100E30008095709561957F4F8F4F9F4F0895E894EF
:100E400009C097FB3EF490958095709561957F4F12
:100E50008F4F9F4F9923A9F0F92F96E9BB279395C0
:100E6000F695879577956795B795F111F8CFFAF4D0
:100E7000BB0F11F460FF1BC06F5F7F4F8F4F9F4F01
:100E800016C0882311F096E911C0772321F09EE85F
:100E9000872F762F05C0662371F096E8862F70E0C5
:100EA00060E02AF09A95660F771F881FDAF7880F9F
:100EB0009695879597F90895990F0008550FAA0BF5
:100EC000E0E8FEEF16161706E807F907C0F012165D
:100ED0001306E407F50798F0621B730B840B950B60
:100EE00039F40A2661F0232B242B252B21F40895B5
:100EF0000A2609F4A140A6958FEF811D811D089552
:100F000057FD9058440F551F59F05F3F71F04795BA
:100F1000880F97FB991F61F09F3F79F0879508959F
:100F2000121613061406551FF2CF4695F1DF08C0BE
:100F3000161617061806991FF1CF869571056105DB
:100F400008940895E894BB2766277727CB0197F983
:100F50000895B2DF08F48FEF08950AD080C071D0F1
:100F600028F076D018F0952309F062C067C0EBCF67
:100F7000C7DFA8F39923D9F35523C9F3950F50E0A0
:100F8000551FAA27EE27FF27BB2700240894679543
:100F900020F4E20FF31FB41F0A1E220F331F441F59
:100FA000AA1F6695A9F7779530F4F30FB41F0A1EB0
:100FB000121E08F46395330F441FAA1F221F769553
:100FC00099F7879520F4B40F0A1E121E631F440F71
:100FD000AA1F221F331F8695A9F7862F712D602D1A
:100FE00011249F5750408AF0E1F088234AF0EE0F19
:100FF000FF1FBB1F661F771F881F91505040A9F726
:101000009E3F510570F014C09ECF5F3FECF3983EB9
:10101000DCF3869577956795B795F795E7959F5F8C
:10102000C1F7FE2B880F911D9695879597F9089526
:1010300097F99F6780E870E060E008959FEF80EC8B
:10104000089500240A94161617061806090608952E
:1010500000240A9412161306140605060895092E94
:101060000394000C11F4882352F0BB0F40F4BF2B03
:1010700011F460FF04C06F5F7F4F8F4F9F4F089543
:101080005527002480FF02C0060E571F660F771FEA
:101090006115710521F096958795009799F7952F21
:0810A000802D0895F894FFCFA4
:0A10A80001024000000140000000BA
:00000001FF
